:1000000045C0000062C0000060C000005EC000008B
:100010005CC000005AC0000058C0000056C000007C
:1000200054C0000052C0000050C000004EC000008C
:100030004CC00000A3C2000048C0000046C0000041
:1000400044C0000042C0000040C000003EC00000AC
:100050003CC000003AC0000038C0000036C00000BC
:1000600034C0000032C0000030C000002EC00000CC
:100070002CC000002AC0000028C0000026C00000DC
:1000800024C0000022C0000020C0000011241FBEB8
:10009000CFEFD0E4DEBFCDBF11E0A0E0B1E0EAE7F2
:1000A000F7E200E00BBF02C007900D92A63EB10739
:1000B000D9F725E0A6EEB1E001C01D92AA33B20740
:1000C000E1F70E943E110C94BB139ACFDC01CB01E7
:1000D0006FB7F89445B1416055B15E7F37E02D911F
:1000E00045B9220F30F055B9000027FB315031F0EF
:1000F000F7CF000027FB315055B991F737E045B9EC
:100100003EF0000055B92D91019751F76FBF08954A
:100110002D91019755B921F76FBF0895232B29F42D
:1001200081E0452B19F080E0089580E0089581E09A
:1001300008958330C1F442305105B9F023303105C0
:1001400039F49A012B7F81E0232B91F080E0089510
:100150002430310561F49A012D7F81E02130310591
:1001600039F080E0089580E0089581E0089580E00E
:1001700008956FEF7FEF8FEF0895F9018130E1F07F
:1001800028F0823069F18330E9F14EC061FF07C089
:1001900081E04130510509F458C080E008954130B4
:1001A000510509F443C0452B09F042C081E0319765
:1001B00009F04BC080E0089561FF07C081E0413045
:1001C000510509F442C080E008954130510591F194
:1001D0004230510589F581E03197B9F580E0089505
:1001E00061FF05C081E0319781F180E00895E13041
:1001F000F10521F1EF2B21F581E04130510529F581
:1002000080E0089561FF05C081E03197F1F080E062
:100210000895E130F105B1F03297B1F481E0413059
:10022000510599F480E0089580E0089581E00895F3
:1002300080E0089581E0089580E0089581E00895C8
:1002400080E0089581E0089580E00895213031052F
:1002500069F44130510551F463FF04C06FEF78E950
:1002600080E008956BE873EC8AE408956FEF7FEF08
:100270008FEF0895B901813089F028F08230D1F0F4
:10028000833019F12EC04130510561F1452B61F5E4
:1002900081E061307105A9F580E0089541155105AF
:1002A00029F14130510521F581E06130710549F5B1
:1002B00080E0089561307105E9F0672BE9F481E091
:1002C00041305105F1F480E0089561157105B1F0F8
:1002D00061307105A9F481E04130510591F480E06D
:1002E0000895089581E0089580E0089581E00895DB
:1002F00080E0089581E0089580E0089581E0089508
:1003000080E00895F901823018F08430C0F51BC0F8
:100310004130510521F463E079EA84EF0895309784
:1003200031F461FF0CC06FEF7FEF8FEF08953297CC
:1003300031F462FF04C06FEF7FEF8FEF089563E049
:1003400079EA84EF0895319721F463E079EA84EF44
:1003500008954115510531F461FF0DC06FEF7FEF36
:100360008FEF08954230510531F462FF04C06FEF02
:100370007FEF8FEF089563E079EA84EF08950895A1
:100380006CE977E280EB0895B901813089F028F0BB
:100390008230D1F0833019F12EC04130510569F11E
:1003A000452B69F581E061307105B1F180E0089578
:1003B0004115510531F14130510529F581E0613098
:1003C000710551F180E0089561307105F1F0672BFE
:1003D000F1F481E041305105F9F080E008956115B4
:1003E0007105B9F061307105B1F481E0413051051A
:1003F00099F080E0089580E0089581E0089580E01C
:10040000089581E0089580E0089581E0089580E0F6
:10041000089581E0089580E0089569E775E588E42E
:10042000089562FF04C069E775E588E4089561FFF7
:1004300004C069E775E588E4089569EE7EE183E626
:10044000089561FF04C06FEF71EC87E008956FEFCE
:100450007BEE8BE3089561FF04C06CE47FEA80E5E6
:1004600008956BE873EC8AE40895B901823018F0BE
:100470008430C8F408C0672BC1F481E042305105D4
:10048000B8F080E008956115710529F481E0452BED
:1004900079F080E008956130710549F481E0452BE1
:1004A00039F080E0089580E0089580E0089580E0CC
:1004B0000895232B31F4452B21F469E775E588E491
:1004C00008956FEF7FEF8FEF0895232B31F4452BC5
:1004D00021F469E775E588E408956FEF7FEF8FEF0A
:1004E0000895232B31F4452B21F46FEF71EC87E055
:1004F00008956FEF7FEF8FEF0895232B31F4452B95
:1005000021F46CE47FEA80E508956FEF7FEF8FEFD1
:10051000089560930B0170930C0180930D019093EB
:100520000E0160931F057093200580932105909321
:10053000220508958BE0809381008DE790E09093F1
:1005400089008093880082E080936F00109285007C
:100550001092840080910B0190910C01A0910D01EB
:10056000B0910E0180931F0590932005A093210563
:10057000B09322058FB780688FBF08951F920F92A6
:100580000FB60F9211248F939F93AF93BF938091D7
:100590001F0590912005A0912105B091220501979A
:1005A000A109B10980931F0590932005A09321050F
:1005B000B0932205892B8A2B8B2B99F481E08093B1
:1005C000230580910B0190910C01A0910D01B09138
:1005D0000E0180931F0590932005A0932105B093F1
:1005E0002205BF91AF919F918F910F900FBE0F90F9
:1005F0001F901895181619065CF0089500002150F8
:100600003109E1F74F5F5F4F8417950719F408959B
:1006100040E050E027E033E0F1CF5E9888B95F9A80
:1006200000005F9882E090E0E5CF089581E0F5CF8B
:100630000895813118F48158F0CF08958155EDCF98
:10064000089584E690E0D6DF88E3E7DF86E0E5DF23
:100650008FE0E3DF81E0E1DF8AE090E0CBCF089537
:100660005E9A88B95F9A00005F9881E090E0C2CFFF
:1006700008950F931F93CF93DF93182FEB01D6DFCD
:100680008881882351F001E0010F812FD2DF899109
:10069000E7DF102F88818111F6CFDF91CF911F9175
:1006A0000F910895ECE7F0E090E4908390818770DB
:1006B000982B9083EAE7F0E08081806480838081DA
:1006C00084FFFDCFEAE7F0E0808180618083809144
:1006D0007800909179000895EF92FF920F931F9305
:1006E000CF93DF93CDB7DEB728970FB6F894DEBF70
:1006F0000FBECDBF6D837E838F839887C7019923FB
:100700009CF011239CF02D813E81215031092E1542
:100710003F0570F02F8138852150310981E0201785
:10072000310738F480E005C080E003C080E001C0FC
:1007300080E028960FB6F894DEBF0FBECDBFDF91E4
:10074000CF911F910F91FF90EF9008952F923F92BC
:100750004F925F926F927F928F929F92AF92BF92D1
:10076000CF92DF92EF92FF920F931F93CF93DF937D
:10077000CDB7DEB7CE54D1090FB6F894DEBF0FBEA9
:10078000CDBF2BAF3CAF4DAF5EAF6FAF21967FAF0C
:10079000219722968FAF229723969FAF2397409061
:1007A0002805509029054114510409F4A7C02C963E
:1007B000ECAEFDAE0EAF1FAF2C972F961FAE2F974E
:1007C0002E961FAE2E972D961FAE2D97212C312CD5
:1007D000F2018081918129E1FC01DE015A960190AC
:1007E0000D922A95E1F7FC01C384D4842C143D04B6
:1007F00008F07CC0F0852896FFAF2897FC01A18403
:10080000B284858896886788708C2896FFAD289773
:10081000FAA3BCA2ABA2DEA2CDA298AA8FA67AAA06
:1008200069AA89E1FE017A96DE01119601900D9286
:100830008A95E1F788E0FE01FB96DE01D3960190F0
:100840000D928A95E1F78DA99EA92C962EAD3FAD0C
:100850002C97820F931F4B815C812BA93CA92A9670
:100860006EAD7FAD2A97260F371F69817A81F90116
:10087000E61BF70B2596FFAFEEAF25979C01241BD7
:10088000350B27963FAF2EAF27972796ECACFDACE4
:100890000EAD1FAD27972A8D3B8D4C8D5D8D6E8DD6
:1008A0007F8D88A199A118DF882301F1A801970104
:1008B000B50128968FAD2897F40109958823B1F0EA
:1008C00027962CAD3DAD4EAD5FAD2797B50128966F
:1008D0008FAD2897F30109952E966FAF2E972D9621
:1008E0007FAF2D972F968FAF2F971601F201428081
:1008F00053804114510409F06BCF09C02F961FAEED
:100900002F972E961FAE2E972D961FAE2D972E96B3
:100910006FAD2E972D967FAD2D972F968FAD2F977C
:10092000C25BDF4F0FB6F894DEBF0FBECDBFDF91C5
:10093000CF911F910F91FF90EF90DF90CF90BF90DC
:10094000AF909F908F907F906F905F904F903F906F
:100950002F9008952F923F924F925F926F927F92C5
:100960008F929F92AF92BF92CF92DF92EF92FF92BF
:100970000F931F93CF93DF93CDB7DEB729970FB6B1
:10098000F894DEBF0FBECDBF8C01698329013A0107
:1009900020912805309129053F832E83232B09F4CC
:1009A0008EC0AE81BF81CD90DC90C016D10609F417
:1009B0007AC0F8014189528963897489F601858575
:1009C0009685A785B08984239523A623B723892BF1
:1009D0008A2B8B2B09F467C0D80114968D919C91BA
:1009E0001597892B09F054C05EC0198618867101CD
:1009F000E40CF51C4101A884B984D80119966D91C5
:100A00007C911A975596ED91FC915697A50194010A
:100A100089810995882321F1F60122813381808122
:100A20009181A701481B590B5B834A83888599856F
:100A3000860D971DDC01A21BB30BBD83AC836185C2
:100A400072850588F689E02D2A813B814C815D8184
:100A5000D60118968C910995882311F081E030C059
:100A6000E885F9853196F987E887D80116968D9142
:100A70009C911797E817F90708F4BCCFBFEF2B1A22
:100A80003B0AF801848195812816390618F00BC0BD
:100A9000212C312CD80116968D919C911797892B7A
:100AA00009F0A3CFEBCFEE81FF810280F381E02D2F
:100AB000FF83EE83EF2B09F074CF80E001C080E06C
:100AC00029960FB6F894DEBF0FBECDBFDF91CF9150
:100AD0001F910F91FF90EF90DF90CF90BF90AF905C
:100AE0009F908F907F906F905F904F903F902F904E
:100AF000089584E090E00E949A12909329058093D3
:100B00002805FC01118210821382128208950F932E
:100B10001F93CF93DF93C0912805D0912905288199
:100B20003981232B19F49983888313C08C0184E0C5
:100B300090E00E949A12FC011183008313821282BA
:100B400001C0E9012A813B8121153105D1F79B8341
:100B50008A83DF91CF911F910F9108950F931F9377
:100B6000CF93DF93C0912805D0912905209711F4E8
:100B70000FC0E80188819981009711F00E9432131B
:100B80000A811B81CE010E9432130115110589F7DC
:100B9000DF91CF911F910F910895CF92DF92EF9245
:100BA000FF929C01992314F4215F3F4F35952795BF
:100BB00035952795359527953595279520FD0EC0B8
:100BC000FC01EF70F078FF2324F43197E06FFF6FA2
:100BD00031968FE090E08E1B9F0B08C08F7090784D
:100BE000992324F40197806F9F6F0196841B950BC6
:100BF0006C017901E61AF70AC701B601FF90EF9080
:100C0000DF90CF90089570E0FB01EE0FFF1F6E0F95
:100C10007F1FFC01E60FF71F308321834283089575
:100C20002F923F924F925F926F927F928F929F92FC
:100C3000AF92BF92CF92DF92EF92FF920F931F93EA
:100C4000CF93DF93CDB7DEB728970FB6F894DEBF0A
:100C50000FBECDBF29833A834B835C836D837E8334
:100C60008F83988727013801212C312CC12CD12C5E
:100C7000B301A201C60191DF7B018C0129813A8178
:100C80004B815C816D817E818F81988525DD8823F4
:100C900081F029813A814B815C816D817E818F81D8
:100CA000988554DD9B01482F6C2D8DE192E0ABDFE0
:100CB00007C0222D332D40E06C2D8DE192E0A3DFA3
:100CC0008FEFC81AD80AC11481E0D80689F660E00F
:100CD00073E08DE192E0FAD928960FB6F894DEBF62
:100CE0000FBECDBFDF91CF911F910F91FF90EF907D
:100CF000DF90CF90BF90AF909F908F907F906F903C
:100D00005F904F903F902F900895EF92FF920F9336
:100D10001F93FC0190911E05913009F073C020B122
:100D200040B180B150E04095509541FBAA27A0F911
:100D3000B0E030E02095309522FB662760F970E046
:100D40006A0F7B1F21E030E0482F417080FF02C016
:100D500020E030E0620F731F623071050CF055C067
:100D6000309709F448C0319709F04BC0411150C089
:100D7000E0913405F09135058185928583FF0DC0A2
:100D8000877F92878187E0913205F09133058185D5
:100D9000928588609287818712C0A0913205B091B8
:100DA000330519968D919C911A97877F1A969C937B
:100DB0008E93199781859285886092878187E090CC
:100DC0002405F09025050091260510912705209116
:100DD0002A0530912B0540912C0550912D056091ED
:100DE0002E0570912F05809130059091310518DF07
:100DF00080E090E00FC081E090E041110BC080E006
:100E000009C008C080E090E005C080E090E002C02A
:100E100081E090E01F910F91FF90EF9008952F9245
:100E20003F924F925F926F927F928F929F92AF927A
:100E3000BF92CF92DF92EF92FF920F931F93CF93C7
:100E4000DF9389E190E00E949A12FC01EE24E39482
:100E5000F12CF182E0826894882482F8912C9382AC
:100E60008282C3E0D0E0D583C483D783C68302E007
:100E700010E0148703870F2EF3E06F2EF02D6086AD
:100E800084EC91E0968B858B0F2EFDE0CF2EF2E067
:100E9000DF2EF02DD08EC78ACF0139DE89E190E0B8
:100EA0000E949A12FC019182808285E090E09383F7
:100EB0008283F582E482F782E682D487C3876086E4
:100EC0000F2EFEE82F2EF0E03F2EF02D368A258AD9
:100ED000D08EC78ACF011BDE89E190E00E949A1272
:100EE000FC010F2EF6E04F2E512CF02D5182408246
:100EF000D383C283558244825782468214870387F4
:100F0000608689E990E0968B858B89EB90E0908FE5
:100F1000878BCF01FCDD89E190E00E949A12FC01F1
:100F20008EE090E091838083938282821583048394
:100F3000178306831487038777247394708685E369
:100F400092E0968B858B89E592E0908F878BCF011D
:100F5000DEDD89E190E00E949A12FC010F2EF1E1A2
:100F6000AF2EB12CF02DB182A08213830283D583E2
:100F7000C483D783C68314870387708684EC91E08B
:100F8000968B858B0F2EFBE2CF2EF2E0DF2EF02D1D
:100F9000D08EC78ACF01BBDD89E190E00E949A1212
:100FA000FC0182E190E09183808385E090E093836F
:100FB0008283F582E482F782E682D487C387368A09
:100FC000258AD08EC78AF286E186CF01A0DD89E12D
:100FD00090E00E949A12FC01B182A08287E090E02A
:100FE00093838283D583C483D783C683148703877F
:100FF0001086F286E1868AE391E0968B858B82E803
:1010000091E0908F878BCF0182DD89E190E00E9493
:101010009A12FC0186E190E091838083D383C2839E
:10102000558244825782468214870387608689E905
:1010300090E0968B858B89EB90E0908F878BCF012A
:1010400066DD89E190E00E949A12FC010F2EFEE11C
:10105000AF2EB12CF02DB182A082D383C283158331
:1010600004831783068314870387708685E392E0E1
:10107000968B858B8DE792E0908F878BCF0147DD34
:1010800089E190E00E949A12FC01B182A082538211
:101090004282F582E482F782E682D487C387368A69
:1010A000258AD08EC78A1287018731DD89E190E0D9
:1010B0000E949A12FC010F2EF1E2CF2ED12CF02DBE
:1010C000D182C08213830283D583C483D783C6832E
:1010D00014870387708684EC91E0968B858B0F2EA6
:1010E000F1E2AF2EF2E0BF2EF02DB08EA78ACF0135
:1010F0000EDD89E190E00E949A12FC0182E290E00C
:101100009183808385E090E093838283F582E482FB
:10111000F782E682D487C387368A258AB08EA78A6B
:10112000F286E186CF01F3DC89E190E00E949A1219
:10113000FC01D182C08287E090E093838283D583D3
:10114000C483D783C683148703871086F286E1861B
:101150008AE391E0968B858B82E891E0908F878B74
:10116000CF01D5DC89E190E00E949A12FC0186E271
:1011700090E091838083D383C283558244825782D7
:10118000468214870387608689E990E0968B858B79
:1011900089EB90E0908F878BCF01B9DC89E190E0FB
:1011A0000E949A12FC010F2EFEE2CF2ED12CF02DC0
:1011B000D182C082D383C2831583048317830683BD
:1011C00014870387708685E392E0968B858B81E791
:1011D00092E0908F878BCF019ADC89E190E00E94AA
:1011E0009A12FC01D182C08253824282F582E4824B
:1011F000F782E682D487C387368A258AB08EA78A8B
:101200001287018784DC89E190E00E949A12FC0138
:101210000F2EF1E3AF2EB12CF02DB182A082F3821C
:10122000E282D583C483D783C683148703877086FD
:1012300084EC91E0968B858B0F2EF1E1CF2EF2E0BE
:10124000DF2EF02DD08EC78ACF0161DC89E190E0DE
:101250000E949A12FC0182E390E091838083938242
:101260008282F582E482F782E682D487C387708621
:10127000368A258AD08EC78AF286E186CF0147DC7E
:1012800089E190E00E949A12FC01B182A08253820F
:101290004282D583C483D783C6831487038710868D
:1012A000F286E1868AE391E0968B858B82E891E075
:1012B000908F878BCF012BDC89E190E00E949A12FE
:1012C000FC0182E390E09183808389E090E0938346
:1012D0008283F582E482F782E682D487C3877086B0
:1012E000368A258AD08EC78A12870187CF010FDC04
:1012F00089E190E00E949A12FC01B182A0828BE009
:1013000090E093838283D583C483D783C683148775
:10131000038710868AE391E0968B858B80EC91E0C1
:10132000908F878BCF01F3DB89E190E00E949A12C6
:10133000FC0186E390E091838083938282825582D0
:1013400044825782468214870387608689E990E049
:10135000968B858B89EB90E0908F878BCF01D7DBC5
:1013600089E190E00E949A12FC010F2EFEE3AF2E5D
:10137000B12CF02DB182A0829382828215830483E6
:101380001783068314870387708685E392E0968B24
:10139000858B85E692E0908F878BCF01B8DB89E162
:1013A00090E00E949A12FC01B182A08287E090E056
:1013B00093838283F582E482F782E682D487C387AF
:1013C0007086368A258AD08EC78A92868186CF011A
:1013D0009EDBDF91CF911F910F91FF90EF90DF90F7
:1013E000CF90BF90AF909F908F907F906F905F90C5
:1013F0004F903F902F9008952F923F924F925F927F
:101400006F927F928F929F92AF92BF92CF92DF9214
:10141000EF92FF920F931F93CF93DF9389E190E0B8
:101420000E949A12FC0166246394712C718260827E
:10143000138212820F2EFFE0EF2EF12CF02DF58299
:10144000E4827782668274866386812C912C5401B3
:10145000689485F885869686A786B08A07E910E0A5
:10146000168B058BC9EBD0E0D08FC78B50DB89E1A1
:1014700090E00E949A12FC017182608288E090E004
:1014800093838283F582E4827782668274866386A0
:1014900085869686A786B08A168B058BD08FC78BDC
:1014A000CF0135DB89E190E00E949A12FC01718244
:1014B0006082F382E282F582E482778266827486B9
:1014C000638685869686A786B08A168B058BD08F15
:1014D000C78B1DDB89E190E00E949A12FC0111820A
:1014E0001082138212827582648280E190E0978379
:1014F00086837486638685869686A786B08A168BD1
:10150000058BD08FC78BCF0102DB89E190E00E9471
:101510009A12FC011182108289E090E09383828309
:1015200003E010E01583048317830683C2E0D0E054
:10153000D487C387812C912C5401689483F88586C5
:101540009686A786B08A0F2EF3E0DF2EF02DD08688
:101550000F2EF4ECEF2EF1E0FF2EF02DF68AE58A47
:101560008DE092E0908F878BCF01D1DA89E190E016
:10157000E1D7FC011182108284E090E093838283A2
:101580001583048317830683D487C387858696864D
:10159000A786B08AD086F68AE58A81E192E0908FAC
:1015A000878BCF01B4DA89E190E0C4D7FC011183C5
:1015B0000083138212821583048317830683D487E2
:1015C000C38785869686A786B08A3324339430866F
:1015D000F68AE58A81E292E0908F878BCF0197DAD5
:1015E00089E190E0A7D7FC0187E090E091838083B8
:1015F000138212821583048317830683D487C387DB
:1016000085869686A786B08A3086F68AE58A8BE23A
:1016100092E0908F878BCF017ADA89E190E08AD7C8
:10162000FC010F2EFEE0CF2ED12CF02DD182C082F6
:1016300013821282D583C483D783C683D487C3879A
:10164000812C912C5401689484F885869686A7860F
:10165000B08A30860F2EF5E3EF2EF2E0FF2EF02D4C
:10166000F68AE58A89E592E0908F878BCF014FDA81
:1016700089E190E05FD7FC018DE090E09183808369
:1016800013821282D583C483D783C683D487C3874A
:1016900085869686A786B08A3086F68AE58A81E7AF
:1016A00092E0908F878BCF0132DA89E190E042D7C8
:1016B000FC018CE090E09183808313821282D583B9
:1016C000C483D783C683D487C38785869686A78637
:1016D000B08A3086F68AE58A8DE792E0908F878B14
:1016E000CF0115DA89E190E025D7FC010F2EFBE050
:1016F0004F2E512CF02D5182408213821282D583BD
:10170000C483D783C683D487C38785869686A786F6
:10171000B08A3086F68AE58A85E692E0908F878BDC
:10172000CF01F5D989E190E005D7FC0186E090E092
:1017300091838083D382C2821583048317830683B7
:10174000D487C387812C912C5401689482F88586B4
:101750009686A786B08A10860F2EFAE3EF2EF1E068
:10176000FF2EF02DF68AE58A80EC91E0908F878B32
:10177000CF01CDD989E190E0DDD6FC0151824082D4
:10178000D382C2821583048317830683D487C387D9
:1017900085869686A786B08A108672866186F68AC6
:1017A000E58A82E891E0908F878BCF01B0D989E1FB
:1017B00090E0C0D67C018CE090E0F70191838083BB
:1017C00084E090E0938382831583048317830683E8
:1017D000D487C387812C912C540183948586968667
:1017E000A786B08A10860F2EFDEB2F2EF0E03F2E3D
:1017F000F02D368A258A86E291E0908F878B0F2E16
:10180000FDE14F2E512C612C712CF02D418A528A12
:10181000638A748A12861186C70179D989E190E0BA
:1018200089D66C018AE090E0F601918380839383EE
:1018300082831583048317830683D487C3878586B1
:101840009686A786B08A82E08087368A258A86E2D5
:1018500091E0908F878BF701418A528A638A748A5C
:1018600088E090E0F60192878187C60150D9F09216
:101870003505E0923405D0923305C0923205DF91F0
:10188000CF911F910F91FF90EF90DF90CF90BF907D
:10189000AF909F908F907F906F905F904F903F9010
:1018A0002F900895EAE2F5E01182108213821282ED
:1018B00080E190E09583848397838683E4E2F5E07A
:1018C00011821082138212820895EF92FF920F9379
:1018D0001F9344D90ED9E6DFA2DA10921E05E090DC
:1018E0002405F090250500912605109127052091EB
:1018F0002A0530912B0540912C0550912D056091C2
:101900002E0570912F05809130059091310588D971
:101910001F910F91FF90EF900895AC0190B19095B9
:10192000947020B12095227030B131704130510552
:1019300011F14230510509F467C0452B09F06FC021
:10194000992309F46DC0222309F46DC031116EC0D2
:101950008091090190910A01019790930A01809367
:10196000090169E171E081E00E94390310920601EA
:1019700081E090E008959923B1F12223A1F1311182
:1019800032C08091090190910A01019790930A0158
:1019900080930901883C910529F460E371E081E0BE
:1019A0000E9439038091090190910A0184369105C2
:1019B00029F467E471E081E00E9439038091090114
:1019C00090910A01892BA9F580DF6EE571E081E035
:1019D0000E9439038CE291E090930A0180930901FF
:1019E00082E090E0089564E771E081E00E943903AD
:1019F00081E0809306018CE291E090930A0180934C
:101A0000090180E090E00895211116C0911117C0DE
:101A10003323C1F081E08093060180E008950895AA
:101A200080E090E0089580E090E0089580E090E00C
:101A3000089581E090E0089582E090E0089582E0CA
:101A400090E0089582E090E00895EF92FF920F9366
:101A50001F9384D84ED826DFCFDC81E080931E050B
:101A6000E0902405F09025050091260510912705AA
:101A700020912A0530912B0540912C0550912D0580
:101A800060912E0570912F05809130059091310560
:101A9000C7D81F910F91FF90EF90089520911E05D8
:101AA000211166C09C0190B190959470211531056B
:101AB00021F021303105D1F05AC0809106018823F0
:101AC00009F459C0992309F459C0809107019091F4
:101AD00008010197909308018093070169E871E07C
:101AE00081E00E94390381E090E008958091060131
:101AF0008823A1F1992369F1809107019091080150
:101B000001979093080180930701883C910529F47F
:101B100060EA71E081E00E943903809107019091B1
:101B200008018436910529F467EB71E081E00E9499
:101B300039038091070190910801892B11F585DF08
:101B40008CE291E0909308018093070180E090E09F
:101B500008956EEC71E081E00E9439038CE291E01F
:101B6000909308018093070180E090E00895089524
:101B700080E090E0089580E090E0089580E090E0BB
:101B8000089581E090E008958091340590913505A5
:101B9000FC01218523FD04C080913205909133051D
:101BA0000895EF92FF920F931F93CF93C82FECDF0E
:101BB0008C01C130D9F138F0C23009F46AC0C330A9
:101BC00009F49BC0CCC0FC018085811104C081E078
:101BD00080931D05C4C0F801208131814281538169
:101BE00060E0C8010E94AA04882309F4B8C0F80183
:101BF000108610921D05E0902405F09025050091B7
:101C000026051091270520912A0530912B0540913A
:101C10002C0550912D0560912E0570912F05809116
:101C20003005909131050E94100699C0FC01808515
:101C3000813019F480931D0592C0F8012081318113
:101C40004281538161E0C8010E94AA04882309F4FB
:101C500086C081E0F801808710921D05E090240580
:101C6000F0902505009126051091270520912A0561
:101C700030912B0540912C0550912D0560912E053A
:101C800070912F0580913005909131050E941006CA
:101C900066C0FC018085823021F481E080931D05BF
:101CA0005EC0F801208131814281538162E0C80128
:101CB0000E94AA04882309F452C082E0F8018087B8
:101CC00010921D05E0902405F09025050091260551
:101CD0001091270520912A0530912B0540912C0564
:101CE00050912D0560912E0570912F058091300542
:101CF000909131050E94100632C0FC01808583302E
:101D000021F481E080931D052AC0F80120813181F2
:101D10004281538163E0C8010E94AA048823F9F03C
:101D200083E0F801808710921D05E0902405F09073
:101D30002505009126051091270520912A0530914F
:101D40002B0540912C0550912D0560912E05709129
:101D50002F0580913005909131050E941006CF919A
:101D60001F910F91FF90EF900895EF92FF920F93C4
:101D70001F93CF93DF937C0183E00E9452038C0179
:101D800084E00E945203EC018FE19EE40197F1F799
:101D900000C0000080911E05811166C0E114F104AD
:101DA00029F0EA94EF2809F456C05EC0C233D10589
:101DB00030F5EAE2F5E080819181409712F480E00D
:101DC00090E0282F91838083E0902405F0902505F2
:101DD000009126051091270530912B0540912C0587
:101DE00050912D0560912E0570912F058091300541
:101DF000909131050E94100681E090E030C1C53815
:101E0000D34008F4E4C0EAE2F5E080819181409695
:101E10008133910514F080E390E0282F9183808333
:101E2000E0902405F09025050091260510912705E6
:101E300030912B0540912C0550912D0560912E0578
:101E400070912F0580913005909131050E94100608
:101E500081E090E004C1E29781E090E0C335D34097
:101E600008F0FDC080E0FBC0813009F0B3C0CE01B6
:101E7000C2978335934080F40233110508F4B0C053
:101E8000053883E0180708F0B0C010921D05C23372
:101E9000D10508F4CAC0DDC0C233D105F0F4023365
:101EA000110548F40C171D0718F480E07ADEA8C06D
:101EB00082E077DEA5C0053893E0190708F4B5C0C5
:101EC00080E094E08C1B9D0B8017910718F481E053
:101ED00068DE90C082E065DE8DC0C53823E0D207A1
:101EE00000F10233110568F480E094E0801B910B4F
:101EF000C817D90718F480E054DE16C083E051DE1D
:101F000013C0053883E0180748F0C017D10718F44C
:101F100081E047DE2EC083E044DE2BC083E041DE5B
:101F200028C00233110528F5C233D10548F4C01783
:101F3000D10718F482E035DE70C080E032DE6DC07B
:101F4000C53893E0D90768F080E094E08C1B9D0BC6
:101F50008017910718F483E024DE58C080E021DE6A
:101F600055C080E01EDE0538134060F580E090E04B
:101F700076C0053883E0180780F1C233D10588F4B4
:101F800080E094E0801B910BC817D90728F482E009
:101F900008DE80E090E063C081E003DE80E090E056
:101FA0005EC0C53893E0D90768F00C171D0728F408
:101FB00083E0F7DD80E090E052C081E0F2DD80E078
:101FC00090E04DC081E0EDDD80E090E048C080E031
:101FD00090E045C080E090E042C080E090E03FC0EB
:101FE000C233D10508F45ECF28C0C233D10508F44E
:101FF00067CF29C0C53823E0D20708F086CF91CF3C
:10200000C53883E0D80708F06FCF8BCF053893E051
:10201000190758F680E090E022C0053823E0120747
:1020200008F0AECF80E090E01AC082E0BADDC5389B
:1020300083E0D80708F072CF9CCFC53893E0D9076A
:1020400008F052CF6ECFC53823E0D20708F05DCF3D
:1020500068CFC53883E0D80708F060CF62CFDF9142
:10206000CF911F910F91FF90EF900895EF92FF9203
:102070000F931F93EAE2F5E0228133814081518181
:10208000FB01E41BF50B7F018C01021B130B20915C
:102090002A0530912B0540912C0550912D0560911A
:1020A0002E0570912F0580913005909131050E9489
:1020B000A603611108C0711108C091E0811101C02F
:1020C00090E0892F03C081E001C081E01F910F9152
:1020D000FF90EF900895CF92DF92EF92FF92FC0174
:1020E0009085913001F130F09230B1F1933009F4E4
:1020F0004DC066C040815181BA0122813381215097
:102100003109C901FA0132966F017901AFDF8111FE
:1021100008C0C701B601AADF91E0811190E0892FC4
:102120004FC080E04DC040815181BA01228133818E
:102130002D5F3F4FC901FA0132966F01790196DF99
:10214000811108C0C701B60191DF91E0811190E0D3
:10215000892F36C080E034C020813181215031097F
:10216000B90142815381CA0169017A01F2E0EF0E9F
:10217000F11C7CDF811108C0C701B60177DF91E057
:10218000811190E0892F1CC080E01AC0208131812C
:102190002D5F3F4FB90142815381CA0169017A0124
:1021A00022E0E20EF11C62DF811108C0C701B60116
:1021B0005DDF91E0811190E0892F02C080E000C0D6
:1021C000FF90EF90DF90CF900895EF92FF920F93E2
:1021D0001F93CF93DF9380911E05813009F045C096
:1021E000D3DCEC0180911D05882309F43EC0CE01AB
:1021F00072DF8823D1F18885813061F028F0823048
:1022000079F0833099F017C08A819B8101979B8375
:102210008A8311C08A819B8101969B838A830BC02C
:102220008881998101979983888305C088819981E4
:10223000019699838883E0902405F090250500910C
:1022400026051091270520912A0530912B054091F4
:102250002C0550912D0560912E0570912F058091D0
:102260003005909131050E94100680E090E0DF91EA
:10227000CF911F910F91FF90EF900895CF93DF932F
:10228000CDB7DEB72A970FB6F894DEBF0FBECDBF2D
:1022900011B88FEF82B984B915B887B918B88AB95F
:1022A0001BB80E94210387EA80937A000E94790577
:1022B0000E940F07EAE2F5E0118210821382128277
:1022C00080E190E0682F8483958386839783E4E29E
:1022D000F5E01182108213821282E0902405F090C2
:1022E0002505009126051091270520E030912B054A
:1022F00040E050912D0570912F05909131050E947D
:1023000010068AE0EFE0F1E0DE01119601900D92F7
:102310008A95E1F70F2EF6EADF2EF02DC12CB12CB5
:10232000A12C5AE040E030E020E004C0D62EC72EB9
:10233000B82EA92E652F742F832F922F2D2D3C2D73
:102340004B2D5A2DD5D05D2D4C2D3B2D2A2D6115B1
:1023500071058105910551F70F2EFAE0EF2EF02D52
:10236000F12C00E010E004C0E62EF72E082F192F04
:102370006D2D7C2D8B2D9A2D2E2D3F2D402F512FE5
:10238000B7D0DE2CCF2CB02EA12E611571058105A2
:10239000910551F76AE070E080E090E02E2D3F2D2E
:1023A000402F512FA5D049015A01E2E1F2E02183EB
:1023B000328343835483158216821782108685EBFD
:1023C0009EE0928781871082E7E0F2E021833283EA
:1023D0004383548315821682178210868DE89CE011
:1023E000928781871082ECEFF1E02183328343836F
:1023F000548315821682178210868EE49DE09287A0
:10240000818710820F2EF1EFCF2EF1E0DF2EF02D1D
:1024100066EA70E080E090E02E2D3F2D402F512F96
:1024200067D0D60111962D933D934D935C931497ED
:10243000F601158216821782108685EE90E192874A
:1024400081871082E6EEF1E081829282A382B482DB
:10245000158216821782108685E896E0928781871A
:1024600081E080836E2D7F2D802F912F0E94890225
:102470000E949A027E01FBE0EF0EF11CCE01019654
:102480006C01D6010D911D916D01F80145815681B8
:102490006781708581819281A381B4814817590732
:1024A0006A077B0779F480810184F285E02D082E8C
:1024B000000C990B0995D8018C93F80115821682AE
:1024C00017821086F80185819681A781B0850196D3
:1024D000A11DB11D85839683A783B087CE14DF0429
:1024E00081F6809123058823E1F310922305C6CF5E
:1024F000A1E21A2EAA1BBB1BFD010DC0AA1FBB1F08
:10250000EE1FFF1FA217B307E407F50720F0A21B79
:10251000B30BE40BF50B661F771F881F991F1A94E6
:1025200069F760957095809590959B01AC01BD0110
:10253000CF0108950F931F93CF93DF9382309105BE
:1025400010F482E090E0E0913805F091390520E048
:1025500030E0A0E0B0E0309719F140815181028174
:10256000138148175907C8F08417950769F4109725
:1025700031F012960C93129713961C9327C0009378
:1025800038051093390522C02115310519F042177D
:10259000530718F49A01BD01EF01DF01F801DBCF09
:1025A00021153105F9F0281B390B2430310580F451
:1025B0008A819B816115710521F0FB0193838283E0
:1025C00004C09093390580933805FE01329644C0CB
:1025D000FE01E20FF31F8193919322503109398359
:1025E00028833AC02091360530913705232B41F4DA
:1025F0002091020130910301309337052093360575
:1026000020910001309101012115310541F42DB7D0
:102610003EB74091040150910501241B350BE09118
:102620003605F0913705E217F307A0F42E1B3F0B98
:102630002817390778F0AC014E5F5F4F2417350734
:1026400048F04E0F5F1F5093370540933605819336
:10265000919302C0E0E0F0E0CF01DF91CF911F91B4
:102660000F910895CF93DF93009709F481C0FC0187
:10267000329713821282A0913805B09139051097D4
:1026800081F420813181820F931F20913605309192
:1026900037052817390751F5F0933705E0933605CC
:1026A00067C0ED0120E030E0CE17DF0740F44A813B
:1026B0005B819E0141155105F1F0EA01F5CFD3830D
:1026C000C28340815181840F951FC817D90759F4DF
:1026D00088819981840F951F0296918380838A81D6
:1026E0009B81938382832115310529F4F093390569
:1026F000E09338053DC0E901FB83EA834991599194
:10270000C40FD51FEC17FD0761F480819181840F00
:10271000951F0296E90199838883828193819B8327
:102720008A83E0E0F0E012968D919C9113970097D8
:1027300019F0FD01DC01F7CF8D919C9111979D015E
:102740002E5F3F4F820F931F209136053091370542
:102750002817390769F4309729F410923905109237
:10276000380502C013821282B0933705A093360554
:0A277000DF91CF910895F894FFCF98
:10277A0000003A052000012C012C01010000001282
:10278A00020702FC01F101E60147616D65207769E4
:10279A006C6C20726573657420696E20332E2E006E
:1027AA0047616D652077696C6C207265736574206A
:1027BA00696E20322E2E0047616D652077696C6C38
:1027CA0020726573657420696E20312E2E00476170
:1027DA006D6520726573657420636F6D706C6574C6
:1027EA0065642E0047616D652072657365742063A8
:1027FA00616E63656C65642E0047616D652077695B
:10280A006C6C20737461727420696E20332E2E00F2
:10281A0047616D652077696C6C20737461727420EE
:10282A00696E20322E2E0047616D652077696C6CC7
:10283A0020737461727420696E20312E2E004761F4
:10284A006D652073746172742069732063616E63AD
:06285A00656C65642E00B0
:00000001FF
